:020000000C945E
:1000020034000C9400000C9400000C9400000C943A
:1000120000000C9400000C9400000C9400000C945E
:1000220000000C9400000C9400000C9400000C944E
:1000320000000C9400000C9400000C9400000C943E
:1000420000000C9400000C9400000C9400000C942E
:1000520000000C9400000C9400000C9400000C941E
:1000620000000C940000F894EE27EFBBF1E0F5BF1E
:10007200E5BF8DE0A2E0BB27ED938A95E9F780E02A
:1000820098E0A0E0B1E0ED930197E9F7E0E0EEBB84
:10009200EFEFEDBFE8E0EEBFC0E0D3E00C9451001B
:1000A2005298259A229A2A985A9800E010E0043130
:1000B200E0E01E0768F42D9AA4E6B0E00E946F000B
:1000C2002D98A4E6B0E00E946F000F5F1F4FEFCFA4
:1000D2004A9BFECF2D9A2A9AFFCFFFCF109639F076
:1000E20080EA9FE00197F1F7A8951197C9F7089563
:00000001FF
